{
  "_format": "hh-sol-artifact-1",
  "contractName": "Vault",
  "sourceName": "contracts/vault.sol",
  "abi": [
    {
      "anonymous": false,
      "inputs": [
        {
          "indexed": false,
          "internalType": "string",
          "name": "message",
          "type": "string"
        },
        {
          "indexed": true,
          "internalType": "uint256",
          "name": "amountA",
          "type": "uint256"
        },
        {
          "indexed": true,
          "internalType": "uint256",
          "name": "amountB",
          "type": "uint256"
        },
        {
          "indexed": true,
          "internalType": "uint256",
          "name": "LP",
          "type": "uint256"
        }
      ],
      "name": "Log",
      "type": "event"
    },
    {
      "inputs": [],
      "name": "allocateToPool",
      "outputs": [],
      "stateMutability": "nonpayable",
      "type": "function"
    },
    {
      "inputs": [
        {
          "internalType": "uint256",
          "name": "_amount1",
          "type": "uint256"
        },
        {
          "internalType": "uint256",
          "name": "_amount2",
          "type": "uint256"
        }
      ],
      "name": "lockTokens",
      "outputs": [],
      "stateMutability": "nonpayable",
      "type": "function"
    },
    {
      "inputs": [
        {
          "internalType": "address",
          "name": "",
          "type": "address"
        },
        {
          "internalType": "address",
          "name": "",
          "type": "address"
        }
      ],
      "name": "tokenAllocated",
      "outputs": [
        {
          "internalType": "uint256",
          "name": "",
          "type": "uint256"
        }
      ],
      "stateMutability": "view",
      "type": "function"
    }
  ],
  "bytecode": "0x608060405234801561001057600080fd5b5061109b806100206000396000f3fe608060405234801561001057600080fd5b50600436106100415760003560e01c8063799ab6491461004657806389158d8e146100765780638dfba37614610092575b600080fd5b610060600480360381019061005b9190610a71565b61009c565b60405161006d9190610aca565b60405180910390f35b610090600480360381019061008b9190610b11565b6100c1565b005b61009a61026f565b005b6000602052816000526040600020602052806000526040600020600091509150505481565b610102333084737ceb23fd6bc0add59e62ac25578270cff1b9f61973ffffffffffffffffffffffffffffffffffffffff16610708909392919063ffffffff16565b610143333083732791bca1f2de4661ed88a30c99a7a9449aa8417473ffffffffffffffffffffffffffffffffffffffff16610708909392919063ffffffff16565b816000803373ffffffffffffffffffffffffffffffffffffffff1673ffffffffffffffffffffffffffffffffffffffff1681526020019081526020016000206000737ceb23fd6bc0add59e62ac25578270cff1b9f61973ffffffffffffffffffffffffffffffffffffffff1673ffffffffffffffffffffffffffffffffffffffff16815260200190815260200160002081905550806000803373ffffffffffffffffffffffffffffffffffffffff1673ffffffffffffffffffffffffffffffffffffffff1681526020019081526020016000206000732791bca1f2de4661ed88a30c99a7a9449aa8417473ffffffffffffffffffffffffffffffffffffffff1673ffffffffffffffffffffffffffffffffffffffff168152602001908152602001600020819055505050565b737ceb23fd6bc0add59e62ac25578270cff1b9f61973ffffffffffffffffffffffffffffffffffffffff1663095ea7b373a5e0829caced8ffdd4de3c43696c57f7d7a678ff6000803373ffffffffffffffffffffffffffffffffffffffff1673ffffffffffffffffffffffffffffffffffffffff1681526020019081526020016000206000737ceb23fd6bc0add59e62ac25578270cff1b9f61973ffffffffffffffffffffffffffffffffffffffff1673ffffffffffffffffffffffffffffffffffffffff168152602001908152602001600020546040518363ffffffff1660e01b8152600401610361929190610b60565b6020604051808303816000875af1158015610380573d6000803e3d6000fd5b505050506040513d601f19601f820116820180604052508101906103a49190610bc1565b50732791bca1f2de4661ed88a30c99a7a9449aa8417473ffffffffffffffffffffffffffffffffffffffff1663095ea7b373a5e0829caced8ffdd4de3c43696c57f7d7a678ff6000803373ffffffffffffffffffffffffffffffffffffffff1673ffffffffffffffffffffffffffffffffffffffff1681526020019081526020016000206000732791bca1f2de4661ed88a30c99a7a9449aa8417473ffffffffffffffffffffffffffffffffffffffff1673ffffffffffffffffffffffffffffffffffffffff168152602001908152602001600020546040518363ffffffff1660e01b8152600401610497929190610b60565b6020604051808303816000875af11580156104b6573d6000803e3d6000fd5b505050506040513d601f19601f820116820180604052508101906104da9190610bc1565b50600080600073a5e0829caced8ffdd4de3c43696c57f7d7a678ff73ffffffffffffffffffffffffffffffffffffffff1663e8e33700737ceb23fd6bc0add59e62ac25578270cff1b9f619732791bca1f2de4661ed88a30c99a7a9449aa841746000803373ffffffffffffffffffffffffffffffffffffffff1673ffffffffffffffffffffffffffffffffffffffff1681526020019081526020016000206000737ceb23fd6bc0add59e62ac25578270cff1b9f61973ffffffffffffffffffffffffffffffffffffffff1673ffffffffffffffffffffffffffffffffffffffff168152602001908152602001600020546000803373ffffffffffffffffffffffffffffffffffffffff1673ffffffffffffffffffffffffffffffffffffffff1681526020019081526020016000206000732791bca1f2de4661ed88a30c99a7a9449aa8417473ffffffffffffffffffffffffffffffffffffffff1673ffffffffffffffffffffffffffffffffffffffff1681526020019081526020016000205460018030426040518963ffffffff1660e01b8152600401610682989796959493929190610c33565b6060604051808303816000875af11580156106a1573d6000803e3d6000fd5b505050506040513d601f19601f820116820180604052508101906106c59190610cc6565b9250925092508082847f643882feb133d07a75be145535e26128cb5274d1b5eb09c92dc1ba0d1ca366046040516106fb90610d76565b60405180910390a4505050565b61078b846323b872dd60e01b85858560405160240161072993929190610d96565b604051602081830303815290604052907bffffffffffffffffffffffffffffffffffffffffffffffffffffffff19166020820180517bffffffffffffffffffffffffffffffffffffffffffffffffffffffff8381831617835250505050610791565b50505050565b60006107f3826040518060400160405280602081526020017f5361666545524332303a206c6f772d6c6576656c2063616c6c206661696c65648152508573ffffffffffffffffffffffffffffffffffffffff166108589092919063ffffffff16565b905060008151111561085357808060200190518101906108139190610bc1565b610852576040517f08c379a000000000000000000000000000000000000000000000000000000000815260040161084990610e3f565b60405180910390fd5b5b505050565b60606108678484600085610870565b90509392505050565b6060824710156108b5576040517f08c379a00000000000000000000000000000000000000000000000000000000081526004016108ac90610ed1565b60405180910390fd5b6108be85610984565b6108fd576040517f08c379a00000000000000000000000000000000000000000000000000000000081526004016108f490610f3d565b60405180910390fd5b6000808673ffffffffffffffffffffffffffffffffffffffff1685876040516109269190610fd7565b60006040518083038185875af1925050503d8060008114610963576040519150601f19603f3d011682016040523d82523d6000602084013e610968565b606091505b50915091506109788282866109a7565b92505050949350505050565b6000808273ffffffffffffffffffffffffffffffffffffffff163b119050919050565b606083156109b757829050610a07565b6000835111156109ca5782518084602001fd5b816040517f08c379a00000000000000000000000000000000000000000000000000000000081526004016109fe9190611043565b60405180910390fd5b9392505050565b600080fd5b600073ffffffffffffffffffffffffffffffffffffffff82169050919050565b6000610a3e82610a13565b9050919050565b610a4e81610a33565b8114610a5957600080fd5b50565b600081359050610a6b81610a45565b92915050565b60008060408385031215610a8857610a87610a0e565b5b6000610a9685828601610a5c565b9250506020610aa785828601610a5c565b9150509250929050565b6000819050919050565b610ac481610ab1565b82525050565b6000602082019050610adf6000830184610abb565b92915050565b610aee81610ab1565b8114610af957600080fd5b50565b600081359050610b0b81610ae5565b92915050565b60008060408385031215610b2857610b27610a0e565b5b6000610b3685828601610afc565b9250506020610b4785828601610afc565b9150509250929050565b610b5a81610a33565b82525050565b6000604082019050610b756000830185610b51565b610b826020830184610abb565b9392505050565b60008115159050919050565b610b9e81610b89565b8114610ba957600080fd5b50565b600081519050610bbb81610b95565b92915050565b600060208284031215610bd757610bd6610a0e565b5b6000610be584828501610bac565b91505092915050565b6000819050919050565b6000819050919050565b6000610c1d610c18610c1384610bee565b610bf8565b610ab1565b9050919050565b610c2d81610c02565b82525050565b600061010082019050610c49600083018b610b51565b610c56602083018a610b51565b610c636040830189610abb565b610c706060830188610abb565b610c7d6080830187610c24565b610c8a60a0830186610c24565b610c9760c0830185610b51565b610ca460e0830184610abb565b9998505050505050505050565b600081519050610cc081610ae5565b92915050565b600080600060608486031215610cdf57610cde610a0e565b5b6000610ced86828701610cb1565b9350506020610cfe86828701610cb1565b9250506040610d0f86828701610cb1565b9150509250925092565b600082825260208201905092915050565b7f616d6f756e74413b20616d6f756e74423b204c69717569646974793b00000000600082015250565b6000610d60601c83610d19565b9150610d6b82610d2a565b602082019050919050565b60006020820190508181036000830152610d8f81610d53565b9050919050565b6000606082019050610dab6000830186610b51565b610db86020830185610b51565b610dc56040830184610abb565b949350505050565b7f5361666545524332303a204552433230206f7065726174696f6e20646964206e60008201527f6f74207375636365656400000000000000000000000000000000000000000000602082015250565b6000610e29602a83610d19565b9150610e3482610dcd565b604082019050919050565b60006020820190508181036000830152610e5881610e1c565b9050919050565b7f416464726573733a20696e73756666696369656e742062616c616e636520666f60008201527f722063616c6c0000000000000000000000000000000000000000000000000000602082015250565b6000610ebb602683610d19565b9150610ec682610e5f565b604082019050919050565b60006020820190508181036000830152610eea81610eae565b9050919050565b7f416464726573733a2063616c6c20746f206e6f6e2d636f6e7472616374000000600082015250565b6000610f27601d83610d19565b9150610f3282610ef1565b602082019050919050565b60006020820190508181036000830152610f5681610f1a565b9050919050565b600081519050919050565b600081905092915050565b60005b83811015610f91578082015181840152602081019050610f76565b83811115610fa0576000848401525b50505050565b6000610fb182610f5d565b610fbb8185610f68565b9350610fcb818560208601610f73565b80840191505092915050565b6000610fe38284610fa6565b915081905092915050565b600081519050919050565b6000601f19601f8301169050919050565b600061101582610fee565b61101f8185610d19565b935061102f818560208601610f73565b61103881610ff9565b840191505092915050565b6000602082019050818103600083015261105d818461100a565b90509291505056fea2646970667358221220d68489c26887356933223bc94be60cdda00d80b5faf6f05edea30c723bacedc164736f6c634300080a0033",
  "linkReferences": {},
  "deployedLinkReferences": {}
}